:020000040000fa
:080000000002040000000000f2
:020000040000fa
:100008009402000094020000940200009402000090
:100018009402000094020000940200009402000080
:100028009402000094020000940200009402000070
:100038009402000094020000940200009402000060
:020000040000fa
:020000040000fa
:100400000f8720000e7f24000e01880000000000ee
:1004100000012000200288000c000700405e200040
:100420000100200011000700000020000000e00093
:10043000020032000000020000000000040302007d
:10044000000000000040da000000fe004440a90067
:10045000200320000000e000030032000000200024
:10046000a00188004440a800000006009101880017
:10047000800078000000eb0015003700e2804000ab
:1004800032a0b4009101ba00e280400032a0b40072
:100490009102ba00e280400032a0b4000002eb00fa
:1004a000472bde00f507b200602ce10004003a00a3
:1004b0000059eb008301e900fdff3e000400370016
:1004c0006128e100010032000082eb000400070017
:1004d0001101ba000200e000e8ff3a000000060047
:1004e0003159ba008301e9000c0032002159ba00e9
:1004f0008301e900080032000400e00003003a0034
:10050000e280400032a0b400f5ff370011d9ba00f4
:100510008301e900faff3a008100e800e180400031
:1005200032a0b400000006000040da000000fe0027
:020000040000fa
:100530000a0d0000436f00006d6d0000616e000049
:1005400064200000526500006365000069760000c9
:10055000656400003a200000000a00000d00000061
:100560000a0d0000454c0000454d0000454e0000be
:10057000543100003a200000000a00000d45000040
:100580004c4500004d4500004e540000323a00003a
:040590002000000047
:020000040000fa
:100594000000fa00cc82a900c882a9002535800099
:1005a40004fe2f0004826200b400b30024358800e6
:1005b4005536800004fe2f00048262003400b3002c
:1005c400543688000080fa00000006000000fa009b
:1005d40064022000343a880004002300243a88008e
:1005e4000080fa00000006000000fa00cc82a80097
:1005f400401f20006c010700cc82a9000080fa0093
:10060400000006000600fa00881f7800efff0700cc
:10061400dfff0700f4ff070010082000fb000700bd
:100624000002eb00040f78000002eb0014079800ae
:100634000082eb002407980001003700000000004e
:10064400054080001e027800048442001301070064
:1006540000427800044c7800054080001e027800b7
:10066400048242001442780004407800f10007003c
:10067400054080001e027800048242001442780083
:10068400e84f52000a003a0000c2b300e900070034
:1006940080c0b300e70007001e8fe9001e02780047
:1006a400e00f520002003d000082eb00040f7800ce
:1006b400054080001e027800048242001442780043
:1006c400ed4f520007003a00054080001e027800fa
:1006d400848242000042eb00844a78001400200027
:1006e400140798001e029000e10f52003e003a00e9
:1006f400044080000041eb00410620000400780023
:100704004100070080292800d6000700044080002b
:1007140004007800d3000700d02a2800d100070085
:1007240025438000044080000001eb008500780030
:100734000400780071000700000278002407980084
:100744002e029000e00f520007003a00002b280010
:10075400c40007002443800004007800c10007009f
:10076400d02a2800bf0007002543800004408000f1
:100774001200200085007800040078005f00070064
:1007840000027800240798002e029000e00f520027
:100794000e003a00d02b2800b2000700244380004a
:1007a40004007800af000700d02a2800ad0007003d
:1007b40006003700054080001e0278008482420053
:1007c4000042eb00844a78001e0fe9001e02780004
:1007d400e00f5200f7ff3d000002eb001407980001
:1007e4000082eb00040f78001e0fe800340620009e
:1007f4009e027800848f520090ff3400340620005b
:10080400040f78008eff37000800fa0010079800e4
:1008140021079800624798000002eb00040f78005b
:10082400300037001e0278009e02900004824200cd
:100834009442780004c6b30084cf52000700340009
:100844001e0278009e0290000482420094427800c6
:10085400a4c7b30084cf5200210034001e027800e4
:100864009e029000048242009442780004c4b300c3
:1008740084cf5200070034001e0278009e029000cc
:100884000482420094427800a4c5b30084cf52008d
:10089400130034001e0278009e029000048242007d
:1008a40094427800f4c2b30084cf520007003400ad
:1008b4001e0278009e029000048242009442780056
:1008c40094c3b30084cf5200050034001e027800a4
:1008d4009e02900004824200ee429000054a780095
:1008e4001e0fe8002e0290009e027800848f5200b2
:1008f400ccff35000080fa00000006000800fa0072
:100904001007980021079800320798002e029000e3
:10091400040f7800ae0290000042eb00844a780095
:100924003e029000e00f52000f003a001e029000b9
:10093400744388000d003700744380000402e8000b
:100944007443880074438000840278001e0290007f
:100954008482520044062000848f52000300340035
:100964000082eb0026003700000000007443800082
:1009740014427800e04f5200efff320018003700b5
:100984007443800014427800ae029000844a7800d8
:100994002e0290000402e8002407980074438000ab
:1009a4000402e800744388007443800084027800e1
:1009b4001e0290008482520044062000848f52005c
:1009c40005003c00ae0290001e0278000482520032
:1009d400e90f520002003400e4ff2f000800370042
:1009e4007443800014427800e04f5200e4ff3a0060
:1009f400ae0290000042eb00844a78000002eb0053
:100a0400040078000080fa00000006000200fa00ea
:100a1400000f78001e0278004411880004002800aa
:100a24000411880004402000141188000080fa009a
:100a3400000006000200fa00004f780000000000e9
:100a4400151180000420200004826200e00f52008f
:100a5400fbff3a001e02fb00241188000080fa000c
:100a6400000006000200fa00000f780005003700bd
:100a74001e027800144278001e0fe800044078003b
:100a8400ecff07001e02780014427800e04f520089
:100a9400f7ff3a000080fa00000006000000fa00a8
:100aa4001411800062026200e00f52000200320062
:100ab4002222a90001003700000000001411800068
:100ac40061026200e00f5200fcff3200341180002a
:100ad40004427800044078000080fa000000060018
:100ae4000a00fa00400798000002eb00040f7800a7
:100af4004e029000e00f520014003a0000c3b3000d
:100b0400ccff070011003700ce029000a4002000a3
:100b1400110009008402d800010278000442780020
:100b24000443b0008e82e8009e824200844a78002a
:100b3400ce029000a4002000110009008402d80015
:100b440000027800440798001e0fe8004e0290004f
:100b5400e00f5200ecff3c00060037001e0fe900d6
:100b64000e82e8001e02420014427800044078001d
:100b7400b0ff07001e027800e00f5200f7ff3c00b0
:100b84000080fa00000006001d00090000000000bb
:100b94000000e90003003200220009000000000008
:100ba400fbff37000000060080007800803e200034
:100bb400c6050200000000008100e900fbff3a00c6
:040bc4000000060027
:020000040000fa
:100bc80000080000700000000000000000000000a5
:020000040000fa
:0200000401f009
:04000000cf0000002d
:020000040000fa
:0200000401f009
:04000400cf00000029
:020000040000fa
:0200000401f009
:0400080007000000ed
:020000040000fa
:0200000401f009
:04000c00830000006d
:020000040000fa
:0200000401f009
:04001000a500000047
:020000040000fa
:0200000401f009
:04001400df00000009
:020000040000fa
:0200000401f009
:04001800f7000000ed
:020000040000fa
:0200000401f009
:04001c00dfff000002
:00000001FF
