:020000040000fa
:080000000002040000000000f2
:020000040000fa
:100008009402000094020000940200009402000090
:100018009402000094020000940200009402000080
:100028009402000094020000940200009402000070
:100038009402000094020000940200009402000060
:020000040000fa
:020000040000fa
:100400000f8720000e7f24000e01880000000000ee
:1004100000012000200288000c000700405a200044
:100420000100200011000700000020000000e00093
:10043000020032000000020000000000040302007d
:10044000000000000040da000000fe004440a90067
:10045000200320000000e000030032000000200024
:10046000a00188004440a800000006009101880017
:10047000800078000000eb0015003700e2804000ab
:1004800032a0b4009101ba00e280400032a0b40072
:100490009102ba00e280400032a0b4000002eb00fa
:1004a000472bde00f507b200602ce10004003a00a3
:1004b0000059eb008301e900fdff3e000400370016
:1004c0006128e100010032000082eb000400070017
:1004d0001101ba000200e000e8ff3a000000060047
:1004e0003159ba008301e9000c0032002159ba00e9
:1004f0008301e900080032000400e00003003a0034
:10050000e280400032a0b400f5ff370011d9ba00f4
:100510008301e900faff3a008100e800e180400031
:1005200032a0b400000006000040da000000fe0027
:020000040000fa
:100530000a0d0000436f00006d6d0000616e000049
:1005400064200000526500006365000069760000c9
:10055000656400003a200000000a00000d00000061
:100560000a0d0000454c0000454d0000454e0000be
:10057000543100003a200000000a00000d45000040
:100580004c4500004d4500004e540000323a00003a
:040590002000000047
:020000040000fa
:100594000000fa00cc82a900c882a9002535800099
:1005a40004fe2f0004826200b400b30024358800e6
:1005b4005536800004fe2f00048262003400b3002c
:1005c400543688000080fa00000006000000fa009b
:1005d40064022000343a880004002300243a88008e
:1005e4000080fa00000006000000fa00cc82a80097
:1005f400401f20004c010700cc82a9000080fa00b3
:10060400000006000400fa00f0ff0700e0ff070006
:10061400f5ff070010082000dc0007000002eb00d3
:10062400040f78000002eb00140798000100370063
:1006340000000000f9000700004278000580200057
:100644009e824200844a7800048020001e024200f8
:100654001442780004407800d6000700048020008b
:100664001e02420014427800e84f52000a003a0089
:1006740000c2b300cf00070080c0b300cd00070064
:100684001e8fe9001e027800e00f520002003d00b8
:100694000002eb00040f7800048020001e024200d8
:1006a40014427800ed4f520006003a000480200006
:1006b4009e0242000042eb00844a780014002000ad
:1006c400140798001e029000e10f52002d003a001a
:1006d4000041eb00410620000080200031000700ab
:1006e40080292800bf00070000802000bd0007000b
:1006f400d02a2800bb000700430620000001eb00bd
:10070400418620000080200063000700002b2800a1
:10071400b400070040862000b2000700d02a280059
:10072400b00007004306200012002000418620008c
:100734000080200058000700d02b2800a9000700e3
:1007440040862000a7000700d02a2800a500070043
:1007540005003700048020009e0242000042eb00a6
:10076400844a78001e0fe9001e027800e00f520050
:10077400f8ff3d000002eb00140798000082eb0034
:10078400040f78001e0fe800340620009e02780053
:10079400848f5200a6ff340034062000040f780032
:1007a400a4ff37000800fa001007980021079800fa
:1007b400624798000002eb00040f78003000370015
:1007c4001e0278009e029000048242009442780047
:1007d40004c6b30084cf5200070034001e02780020
:1007e4009e0290000482420094427800a4c7b300a1
:1007f40084cf5200210034001e0278009e02900033
:10080400048242009442780004c4b30084cf5200ae
:10081400070034001e0278009e0290000482420009
:1008240094427800a4c5b30084cf5200130034006e
:100834001e0278009e0290000482420094427800d6
:10084400f4c2b30084cf5200070034001e027800c3
:100854009e029000048242009442780094c3b30044
:1008640084cf5200050034001e0278009e029000de
:1008740004824200ee429000054a78001e0fe80010
:100884002e0290009e027800848f5200ccff350027
:100894000080fa00000006000800fa00000f78004b
:1008a4001107980022079800330798009e029000d1
:1008b4000042eb00844a78002e029000e00f5200c0
:1008c4000e003a001e027800744388000c003700c2
:1008d400744380000402e800744388007443800079
:1008e400840278001e027800848252003e02900046
:1008f400848f520020003c000100370000000000fb
:100904007443800014427800e04f5200f0ff32003c
:100914001100370074438000144278009e02900056
:10092400844a78001e0290000402e800140798002c
:10093400744380000402e800744388007443800018
:10094400840278001e027800848252003e029000e5
:10095400848f52000a003c007443800014427800e3
:10096400e04f5200ebff3a009e0290000042eb0081
:10097400844a7800030037000000000001003700bb
:10098400000000000080fa00000006000200fa00e7
:10099400000f78001e02780044118800040028002b
:1009a4000411880004402000141188000080fa001b
:1009b400000006000200fa00004f7800000000006a
:1009c400151180000420200004826200e00f520010
:1009d400fbff3a001e02fb00241188000080fa008d
:1009e400000006000200fa00000f7800050037003e
:1009f4001e027800144278001e0fe80004407800bc
:100a0400ecff07001e02780014427800e04f520009
:100a1400f7ff3a000080fa00000006000000fa0028
:100a24001411800062026200e00f520002003200e2
:100a34002222a900010037000000000014118000e8
:100a440061026200e00f5200fcff320034118000aa
:100a540004427800044078000080fa000000060098
:100a64000a00fa00400798000002eb00040f780027
:100a74004e029000e00f520014003a0000c3b3008d
:100a8400ccff070011003700ce029000a400200024
:100a9400110009008402d8000102780004427800a1
:100aa4000443b0008e82e8009e824200844a7800ab
:100ab400ce029000a4002000110009008402d80096
:100ac40000027800440798001e0fe8004e029000d0
:100ad400e00f5200ecff3c00060037001e0fe90057
:100ae4000e82e8001e02420014427800044078009e
:100af400b0ff07001e027800e00f5200f7ff3c0031
:100b04000080fa00000006001d000900000000003b
:100b14000000e90003003200220009000000000088
:100b2400fbff37000000060080007800803e2000b4
:100b340086050200000000008100e900fbff3a0086
:040b440000000600a7
:020000040000fa
:100b4800000800006e000000000000006e080000b1
:0c0b58000200000000000000000000008f
:020000040000fa
:0200000401f009
:04000000cf0000002d
:020000040000fa
:0200000401f009
:04000400cf00000029
:020000040000fa
:0200000401f009
:0400080007000000ed
:020000040000fa
:0200000401f009
:04000c00830000006d
:020000040000fa
:0200000401f009
:04001000a500000047
:020000040000fa
:0200000401f009
:04001400df00000009
:020000040000fa
:0200000401f009
:04001800f7000000ed
:020000040000fa
:0200000401f009
:04001c00dfff000002
:00000001FF
