:020000040000fa
:080000000002040000000000f2
:020000040000fa
:100008009402000094020000940200009402000090
:100018009402000094020000940200009402000080
:100028009402000094020000940200009402000070
:100038009402000094020000940200009402000060
:020000040000fa
:020000040000fa
:100400004f8620000e7f24000e01880000000000af
:1004100000012000200288000c000700c03f2000df
:100420000100200011000700000020000000e00093
:10043000020032000000020000000000ea02020098
:10044000000000000040da000000fe004440a90067
:10045000800120000000e0000300320000002000c6
:10046000a00188004440a800000006009101880017
:10047000800078000000eb0015003700e2804000ab
:1004800032a0b4009101ba00e280400032a0b40072
:100490009102ba00e280400032a0b4000002eb00fa
:1004a000472bde00f507b200602ce10004003a00a3
:1004b0000059eb008301e900fdff3e000400370016
:1004c0006128e100010032000082eb000400070017
:1004d0001101ba000200e000e8ff3a000000060047
:1004e0003159ba008301e9000c0032002159ba00e9
:1004f0008301e900080032000400e00003003a0034
:10050000e280400032a0b400f5ff370011d9ba00f4
:100510008301e900faff3a008100e800e180400031
:1005200032a0b400000006000040da000000fe0027
:020000040000fa
:100530000a0d0000436f00006d6d0000616e000049
:1005400064200000526500006365000069760000c9
:10055000656400003a200000000a00000d00000061
:020000040000fa
:100560000000fa00cc82a900c882a90025358000cd
:1005700004fe2f0004826200b400b300243588001a
:100580005536800004fe2f00048262003400b30060
:10059000543688000080fa00000006000000fa00cf
:1005a00064022000343a880004002300243a8800c2
:1005b0000080fa00000006000000fa00cc82a800cb
:1005c000401f200085000700cc82a9000080fa00af
:1005d000000006000400fa00f0ff0700e0ff07003b
:1005e000f5ff0700100820003f0007000002eb00a5
:1005f000040f78000002eb00140798000100370098
:10060000000000005c000700004278000580200028
:100610009e824200844a7800048020001e0242002c
:10062000144278000440780039000700048020005c
:100630001e02420014427800e84f52000a003a00bd
:1006400000c2b3003200070080c0b30030000700d2
:100650001e8fe9001e027800e00f520002003d00ec
:100660000002eb00040f7800048020001e0242000c
:1006700014427800ed4f520006003a00048020003a
:100680009e0242000042eb00844a780014002000e1
:10069000140798001e029000e10f52000a003a0071
:1006a0008029280026000700008020002400070081
:1006b000d02a2800220007000002eb00140798004f
:1006c0000082eb00040f78001e0fe80034062000c3
:1006d0009e027800848f5200c9ff34003406200047
:1006e000040f7800c7ff37000200fa00000f7800ff
:1006f0001e027800441188000400280004118800bc
:1007000004402000141188000080fa000000060058
:100710000200fa00004f7800000000001511800070
:100720000420200004826200e00f5200fbff3a0028
:100730001e02fb00241188000080fa000000060061
:100740000200fa00000f7800050037001e02780052
:10075000144278001e0fe80004407800ecff070008
:100760001e02780014427800e04f5200f7ff3a0072
:100770000080fa00000006000000fa00141180005a
:1007800062026200e00f5200020032002222a90041
:1007900001003700000000001411800061026200b7
:1007a000e00f5200fcff3200341180000442780058
:1007b000044078000080fa00000006001d000900d7
:1007c000000000000000e9000300320022000900e0
:1007d00000000000fbff37000000060080007800ea
:1007e000803e2000de030200000000008100e900de
:0807f000fbff3a0000000600c7
:020000040000fa
:1007f8000008000064000000000000000000000085
:020000040000fa
:0200000401f009
:04000000cf0000002d
:020000040000fa
:0200000401f009
:04000400cf00000029
:020000040000fa
:0200000401f009
:0400080007000000ed
:020000040000fa
:0200000401f009
:04000c00830000006d
:020000040000fa
:0200000401f009
:04001000a500000047
:020000040000fa
:0200000401f009
:04001400df00000009
:020000040000fa
:0200000401f009
:04001800f7000000ed
:020000040000fa
:0200000401f009
:04001c00dfff000002
:00000001FF
